{
  "_format": "hh-sol-artifact-1",
  "contractName": "Verifier",
  "sourceName": "contracts/createVerifier.sol",
  "abi": [
    {
      "inputs": [
        {
          "internalType": "uint256[2]",
          "name": "a",
          "type": "uint256[2]"
        },
        {
          "internalType": "uint256[2][2]",
          "name": "b",
          "type": "uint256[2][2]"
        },
        {
          "internalType": "uint256[2]",
          "name": "c",
          "type": "uint256[2]"
        },
        {
          "internalType": "uint256[1]",
          "name": "input",
          "type": "uint256[1]"
        }
      ],
      "name": "verifyProof",
      "outputs": [
        {
          "internalType": "bool",
          "name": "r",
          "type": "bool"
        }
      ],
      "stateMutability": "view",
      "type": "function"
    }
  ],
  "bytecode": "0x608060405234801561001057600080fd5b506122a3806100206000396000f3fe608060405234801561001057600080fd5b506004361061002b5760003560e01c806343753b4d14610030575b600080fd5b61004a60048036038101906100459190611c54565b610060565b6040516100579190611d9a565b60405180910390f35b600061006a61195f565b6040518060400160405280876000600281106100af577f4e487b7100000000000000000000000000000000000000000000000000000000600052603260045260246000fd5b60200201518152602001876001600281106100f3577f4e487b7100000000000000000000000000000000000000000000000000000000600052603260045260246000fd5b602002015181525081600001819052506040518060400160405280604051806040016040528088600060028110610153577f4e487b7100000000000000000000000000000000000000000000000000000000600052603260045260246000fd5b6020020151600060028110610191577f4e487b7100000000000000000000000000000000000000000000000000000000600052603260045260246000fd5b60200201518152602001886000600281106101d5577f4e487b7100000000000000000000000000000000000000000000000000000000600052603260045260246000fd5b6020020151600160028110610213577f4e487b7100000000000000000000000000000000000000000000000000000000600052603260045260246000fd5b60200201518152508152602001604051806040016040528088600160028110610265577f4e487b7100000000000000000000000000000000000000000000000000000000600052603260045260246000fd5b60200201516000600281106102a3577f4e487b7100000000000000000000000000000000000000000000000000000000600052603260045260246000fd5b60200201518152602001886001600281106102e7577f4e487b7100000000000000000000000000000000000000000000000000000000600052603260045260246000fd5b6020020151600160028110610325577f4e487b7100000000000000000000000000000000000000000000000000000000600052603260045260246000fd5b6020020151815250815250816020018190525060405180604001604052808560006002811061037d577f4e487b7100000000000000000000000000000000000000000000000000000000600052603260045260246000fd5b60200201518152602001856001600281106103c1577f4e487b7100000000000000000000000000000000000000000000000000000000600052603260045260246000fd5b602002015181525081604001819052506000600167ffffffffffffffff811115610414577f4e487b7100000000000000000000000000000000000000000000000000000000600052604160045260246000fd5b6040519080825280602002602001820160405280156104425781602001602082028036833780820191505090505b50905060005b60018110156104e75784816001811061048a577f4e487b7100000000000000000000000000000000000000000000000000000000600052603260045260246000fd5b60200201518282815181106104c8577f4e487b7100000000000000000000000000000000000000000000000000000000600052603260045260246000fd5b60200260200101818152505080806104df90612048565b915050610448565b5060006104f48284610514565b14156105055760019250505061050c565b6000925050505b949350505050565b6000807f30644e72e131a029b85045b68181585d2833e84879b9709143e1f593f00000019050600061054461079f565b90508060800151516001865161055a9190611f1d565b1461059a576040517f08c379a000000000000000000000000000000000000000000000000000000000815260040161059190611db5565b60405180910390fd5b60006040518060400160405280600081526020016000815250905060005b86518110156106fb57838782815181106105fb577f4e487b7100000000000000000000000000000000000000000000000000000000600052603260045260246000fd5b602002602001015110610643576040517f08c379a000000000000000000000000000000000000000000000000000000000815260040161063a90611df5565b60405180910390fd5b6106e6826106e1856080015160018561065c9190611f1d565b81518110610693577f4e487b7100000000000000000000000000000000000000000000000000000000600052603260045260246000fd5b60200260200101518a85815181106106d4577f4e487b7100000000000000000000000000000000000000000000000000000000600052603260045260246000fd5b6020026020010151610c14565b610d63565b915080806106f390612048565b9150506105b8565b5061074b81836080015160008151811061073e577f4e487b7100000000000000000000000000000000000000000000000000000000600052603260045260246000fd5b6020026020010151610d63565b905061078161075d8660000151610efe565b8660200151846000015185602001518587604001518b604001518960600151610fa3565b6107915760019350505050610799565b600093505050505b92915050565b6107a7611992565b60405180604001604052807f275fa013a5fae34004f6f2c0831351a50688d9a261550aa65cd723095880011d81526020017e3e1c8b2877386d5428326eafdf0996a1965891f2d4c5b3a47586dd6b6e89b18152508160000181905250604051806040016040528060405180604001604052807f22583db102fe528b0d32735f157f4a5973b447fdd9bb2a16cefbfcfc550d08ae81526020017f2b35ceef87e425adc4111f7f79d0a68d41877d89c927f21cb264424128268b5e815250815260200160405180604001604052807f11f67f86f1be69a86e389de702a3fd578afb8899b3ffce5bf6371f0e4d7ae1cd81526020017f052bcb25edce8ca47b263660c1ad9a6b3e9a22d7ea4366057c2f0bbeac9007088152508152508160200181905250604051806040016040528060405180604001604052807f198e9393920d483a7260bfb731fb5d25f1aa493335a9e71297e485b7aef312c281526020017f1800deef121f1e76426a00665e5c4479674322d4f75edadd46debd5cd992f6ed815250815260200160405180604001604052807f090689d0585ff075ec9e99ad690c3395bc4b313370b38ef355acdadcd122975b81526020017f12c85ea5db8c6deb4aab71808dcb408fe3d1e7690c43d37b4ce6cc0166fa7daa8152508152508160400181905250604051806040016040528060405180604001604052807f0f03bfdfa589ada257d69fb8077a509f4f1156b0c00835af7e0c0d3f0302c54181526020017f1141d80f79dd4c28c166e4f020a9647c69a75e0a8f4f6a20af5e9e93c3719eac815250815260200160405180604001604052807f09e87935bd23ea14c40800a35c6b25a20b1a9de18ac90cb4ae07c4f80fbe903281526020017f25ac92e2a5f7c7b7a6d601df6b2eea1fc8af92a1360c999c4f7b9dfd474fbe6b8152508152508160600181905250600267ffffffffffffffff811115610a93577f4e487b7100000000000000000000000000000000000000000000000000000000600052604160045260246000fd5b604051908082528060200260200182016040528015610acc57816020015b610ab96119d9565b815260200190600190039081610ab15790505b50816080018190525060405180604001604052807f0dc1d3797052eff44a3418c2d755b90a9ce1fd516bbdbc90d12b5f4502edc77e81526020017f2e41bc3f4d58fca3add66557ae44e0c2cc201daeafa5ce7af24ec25ce2fe4e8f8152508160800151600081518110610b68577f4e487b7100000000000000000000000000000000000000000000000000000000600052603260045260246000fd5b602002602001018190525060405180604001604052807f138296de4a384910466486d93bbdb70dee85f7870ba28cf61ffc062b254018a181526020017f263cc80c5027ef78e6de6e770728e4ef335575924544853bf6bdc7627c75f2488152508160800151600181518110610c06577f4e487b7100000000000000000000000000000000000000000000000000000000600052603260045260246000fd5b602002602001018190525090565b610c1c6119d9565b610c246119f3565b836000015181600060038110610c63577f4e487b7100000000000000000000000000000000000000000000000000000000600052603260045260246000fd5b602002018181525050836020015181600160038110610cab577f4e487b7100000000000000000000000000000000000000000000000000000000600052603260045260246000fd5b6020020181815250508281600260038110610cef577f4e487b7100000000000000000000000000000000000000000000000000000000600052603260045260246000fd5b602002018181525050600060608360808460076107d05a03fa90508060008114610d1857610d1a565bfe5b5080610d5b576040517f08c379a0000000000000000000000000000000000000000000000000000000008152600401610d5290611dd5565b60405180910390fd5b505092915050565b610d6b6119d9565b610d73611a15565b836000015181600060048110610db2577f4e487b7100000000000000000000000000000000000000000000000000000000600052603260045260246000fd5b602002018181525050836020015181600160048110610dfa577f4e487b7100000000000000000000000000000000000000000000000000000000600052603260045260246000fd5b602002018181525050826000015181600260048110610e42577f4e487b7100000000000000000000000000000000000000000000000000000000600052603260045260246000fd5b602002018181525050826020015181600360048110610e8a577f4e487b7100000000000000000000000000000000000000000000000000000000600052603260045260246000fd5b602002018181525050600060608360c08460066107d05a03fa90508060008114610eb357610eb5565bfe5b5080610ef6576040517f08c379a0000000000000000000000000000000000000000000000000000000008152600401610eed90611e35565b60405180910390fd5b505092915050565b610f066119d9565b60007f30644e72e131a029b85045b68181585d97816a916871ca8d3c208c16d87cfd47905060008360000151148015610f43575060008360200151145b15610f67576040518060400160405280600081526020016000815250915050610f9e565b604051806040016040528084600001518152602001828560200151610f8c9190612091565b83610f979190611fcd565b8152509150505b919050565b600080600467ffffffffffffffff811115610fe7577f4e487b7100000000000000000000000000000000000000000000000000000000600052604160045260246000fd5b60405190808252806020026020018201604052801561102057816020015b61100d6119d9565b8152602001906001900390816110055790505b5090506000600467ffffffffffffffff811115611066577f4e487b7100000000000000000000000000000000000000000000000000000000600052604160045260246000fd5b60405190808252806020026020018201604052801561109f57816020015b61108c611a37565b8152602001906001900390816110845790505b5090508a826000815181106110dd577f4e487b7100000000000000000000000000000000000000000000000000000000600052603260045260246000fd5b60200260200101819052508882600181518110611123577f4e487b7100000000000000000000000000000000000000000000000000000000600052603260045260246000fd5b60200260200101819052508682600281518110611169577f4e487b7100000000000000000000000000000000000000000000000000000000600052603260045260246000fd5b602002602001018190525084826003815181106111af577f4e487b7100000000000000000000000000000000000000000000000000000000600052603260045260246000fd5b602002602001018190525089816000815181106111f5577f4e487b7100000000000000000000000000000000000000000000000000000000600052603260045260246000fd5b6020026020010181905250878160018151811061123b577f4e487b7100000000000000000000000000000000000000000000000000000000600052603260045260246000fd5b60200260200101819052508581600281518110611281577f4e487b7100000000000000000000000000000000000000000000000000000000600052603260045260246000fd5b602002602001018190525083816003815181106112c7577f4e487b7100000000000000000000000000000000000000000000000000000000600052603260045260246000fd5b60200260200101819052506112dc82826112ec565b9250505098975050505050505050565b60008151835114611332576040517f08c379a000000000000000000000000000000000000000000000000000000000815260040161132990611e15565b60405180910390fd5b60008351905060006006826113479190611f73565b905060008167ffffffffffffffff81111561138b577f4e487b7100000000000000000000000000000000000000000000000000000000600052604160045260246000fd5b6040519080825280602002602001820160405280156113b95781602001602082028036833780820191505090505b50905060005b8381101561189e57868181518110611400577f4e487b7100000000000000000000000000000000000000000000000000000000600052603260045260246000fd5b60200260200101516000015182600060068461141c9190611f73565b6114269190611f1d565b8151811061145d577f4e487b7100000000000000000000000000000000000000000000000000000000600052603260045260246000fd5b6020026020010181815250508681815181106114a2577f4e487b7100000000000000000000000000000000000000000000000000000000600052603260045260246000fd5b6020026020010151602001518260016006846114be9190611f73565b6114c89190611f1d565b815181106114ff577f4e487b7100000000000000000000000000000000000000000000000000000000600052603260045260246000fd5b602002602001018181525050858181518110611544577f4e487b7100000000000000000000000000000000000000000000000000000000600052603260045260246000fd5b602002602001015160000151600060028110611589577f4e487b7100000000000000000000000000000000000000000000000000000000600052603260045260246000fd5b602002015182600260068461159e9190611f73565b6115a89190611f1d565b815181106115df577f4e487b7100000000000000000000000000000000000000000000000000000000600052603260045260246000fd5b602002602001018181525050858181518110611624577f4e487b7100000000000000000000000000000000000000000000000000000000600052603260045260246000fd5b602002602001015160000151600160028110611669577f4e487b7100000000000000000000000000000000000000000000000000000000600052603260045260246000fd5b602002015182600360068461167e9190611f73565b6116889190611f1d565b815181106116bf577f4e487b7100000000000000000000000000000000000000000000000000000000600052603260045260246000fd5b602002602001018181525050858181518110611704577f4e487b7100000000000000000000000000000000000000000000000000000000600052603260045260246000fd5b602002602001015160200151600060028110611749577f4e487b7100000000000000000000000000000000000000000000000000000000600052603260045260246000fd5b602002015182600460068461175e9190611f73565b6117689190611f1d565b8151811061179f577f4e487b7100000000000000000000000000000000000000000000000000000000600052603260045260246000fd5b6020026020010181815250508581815181106117e4577f4e487b7100000000000000000000000000000000000000000000000000000000600052603260045260246000fd5b602002602001015160200151600160028110611829577f4e487b7100000000000000000000000000000000000000000000000000000000600052603260045260246000fd5b602002015182600560068461183e9190611f73565b6118489190611f1d565b8151811061187f577f4e487b7100000000000000000000000000000000000000000000000000000000600052603260045260246000fd5b602002602001018181525050808061189690612048565b9150506113bf565b506118a7611a5d565b6000602082602086026020860160086107d05a03fa905080600081146118cc576118ce565bfe5b508061190f576040517f08c379a000000000000000000000000000000000000000000000000000000000815260040161190690611e55565b60405180910390fd5b60008260006001811061194b577f4e487b7100000000000000000000000000000000000000000000000000000000600052603260045260246000fd5b602002015114159550505050505092915050565b60405180606001604052806119726119d9565b815260200161197f611a37565b815260200161198c6119d9565b81525090565b6040518060a001604052806119a56119d9565b81526020016119b2611a37565b81526020016119bf611a37565b81526020016119cc611a37565b8152602001606081525090565b604051806040016040528060008152602001600081525090565b6040518060600160405280600390602082028036833780820191505090505090565b6040518060800160405280600490602082028036833780820191505090505090565b6040518060400160405280611a4a611a7f565b8152602001611a57611a7f565b81525090565b6040518060200160405280600190602082028036833780820191505090505090565b6040518060400160405280600290602082028036833780820191505090505090565b6000611ab4611aaf84611e9a565b611e75565b90508082856040860282011115611aca57600080fd5b60005b85811015611afa5781611ae08882611c18565b845260208401935060408301925050600181019050611acd565b5050509392505050565b6000611b17611b1284611ec0565b611e75565b90508082856020860282011115611b2d57600080fd5b60005b85811015611b5d5781611b438882611c3f565b845260208401935060208301925050600181019050611b30565b5050509392505050565b6000611b7a611b7584611ee6565b611e75565b90508082856020860282011115611b9057600080fd5b60005b85811015611bc05781611ba68882611c3f565b845260208401935060208301925050600181019050611b93565b5050509392505050565b600082601f830112611bdb57600080fd5b6002611be8848285611aa1565b91505092915050565b600082601f830112611c0257600080fd5b6001611c0f848285611b04565b91505092915050565b600082601f830112611c2957600080fd5b6002611c36848285611b67565b91505092915050565b600081359050611c4e81612256565b92915050565b6000806000806101208587031215611c6b57600080fd5b6000611c7987828801611c18565b9450506040611c8a87828801611bca565b93505060c0611c9b87828801611c18565b925050610100611cad87828801611bf1565b91505092959194509250565b611cc281612001565b82525050565b6000611cd5601283611f0c565b9150611ce082612160565b602082019050919050565b6000611cf8601283611f0c565b9150611d0382612189565b602082019050919050565b6000611d1b601f83611f0c565b9150611d26826121b2565b602082019050919050565b6000611d3e601683611f0c565b9150611d49826121db565b602082019050919050565b6000611d61601283611f0c565b9150611d6c82612204565b602082019050919050565b6000611d84601583611f0c565b9150611d8f8261222d565b602082019050919050565b6000602082019050611daf6000830184611cb9565b92915050565b60006020820190508181036000830152611dce81611cc8565b9050919050565b60006020820190508181036000830152611dee81611ceb565b9050919050565b60006020820190508181036000830152611e0e81611d0e565b9050919050565b60006020820190508181036000830152611e2e81611d31565b9050919050565b60006020820190508181036000830152611e4e81611d54565b9050919050565b60006020820190508181036000830152611e6e81611d77565b9050919050565b6000611e7f611e90565b9050611e8b8282612017565b919050565b6000604051905090565b600067ffffffffffffffff821115611eb557611eb4612120565b5b602082029050919050565b600067ffffffffffffffff821115611edb57611eda612120565b5b602082029050919050565b600067ffffffffffffffff821115611f0157611f00612120565b5b602082029050919050565b600082825260208201905092915050565b6000611f288261200d565b9150611f338361200d565b9250827fffffffffffffffffffffffffffffffffffffffffffffffffffffffffffffffff03821115611f6857611f676120c2565b5b828201905092915050565b6000611f7e8261200d565b9150611f898361200d565b9250817fffffffffffffffffffffffffffffffffffffffffffffffffffffffffffffffff0483118215151615611fc257611fc16120c2565b5b828202905092915050565b6000611fd88261200d565b9150611fe38361200d565b925082821015611ff657611ff56120c2565b5b828203905092915050565b60008115159050919050565b6000819050919050565b6120208261214f565b810181811067ffffffffffffffff8211171561203f5761203e612120565b5b80604052505050565b60006120538261200d565b91507fffffffffffffffffffffffffffffffffffffffffffffffffffffffffffffffff821415612086576120856120c2565b5b600182019050919050565b600061209c8261200d565b91506120a78361200d565b9250826120b7576120b66120f1565b5b828206905092915050565b7f4e487b7100000000000000000000000000000000000000000000000000000000600052601160045260246000fd5b7f4e487b7100000000000000000000000000000000000000000000000000000000600052601260045260246000fd5b7f4e487b7100000000000000000000000000000000000000000000000000000000600052604160045260246000fd5b6000601f19601f8301169050919050565b7f76657269666965722d6261642d696e7075740000000000000000000000000000600082015250565b7f70616972696e672d6d756c2d6661696c65640000000000000000000000000000600082015250565b7f76657269666965722d6774652d736e61726b2d7363616c61722d6669656c6400600082015250565b7f70616972696e672d6c656e677468732d6661696c656400000000000000000000600082015250565b7f70616972696e672d6164642d6661696c65640000000000000000000000000000600082015250565b7f70616972696e672d6f70636f64652d6661696c65640000000000000000000000600082015250565b61225f8161200d565b811461226a57600080fd5b5056fea2646970667358221220b8d804af8a89bb08163043e855ccabf48eb3bcd7f08be3cd673fe00b1dfdb83b64736f6c63430008040033",
  "linkReferences": {},
  "deployedLinkReferences": {}
}